:100000000C947B000C94A3000C94A3000C94A3000C
:100010000C94A3000C94A3000C94A3000C94A300D4
:100020000C94A3000C94A3000C94A3000C94A300C4
:100030000C94A3000C94A3000C94A3000C94A300B4
:100040000C9475040C94A3000C94E5040C94BF0468
:100050000C94A3000C94A3000C94A3000C94A30094
:100060000C94A3000C94A3003D3D3D2054455354F3
:100070002042415420444155203D3D3D00207C20FC
:1000800052656C61793A2000207C2054656D703A8D
:100090002000536F696C3A20000000000024002704
:1000A000002A0000000000250028002B00000000AE
:1000B0000800020100000304070000000000000027
:1000C00000000000002300260029000404040404AA
:1000D00004040402020202020203030303030301F5
:1000E00002040810204080010204081020010204CC
:1000F00008102000170511241FBECFEFD8E0DEBF87
:10010000CDBF11E0A0E0B1E0EEE9F1E102C0059061
:100110000D92A631B107D9F721E0A6E1B1E001C007
:100120001D92AF3CB207E1F710E0CBE7D0E004C08E
:100130002197FE010E94C708CA37D107C9F70E945C
:1001400064050C94CD080C940000CF92DF92EF92DE
:10015000FF92CF93DF93B091C301A0E08111AB2F49
:100160008091C40190E0880F991FAC014F535F4FFD
:10017000C090C901D090CA01E090CB01F090CC01B1
:1001800030E020E0FA01C591D491E881B90190E016
:1001900080E0EB23EA130AC02F5F3F4F6C157D050B
:1001A0008E059F0578F36FEF7FEFCB01DF91CF9145
:1001B000FF90EF90DF90CF900895833081F028F486
:1001C000813099F08230A9F008958730A9F0883005
:1001D000C9F08430B1F4809180008F7D03C080919C
:1001E00080008F7780938000089584B58F7784BDD9
:1001F000089584B58F7DFBCF8091B0008F77809379
:10020000B00008958091B0008F7DF9CF1F93CF93F8
:10021000DF93282F30E0F901E355FF4F8491F90176
:10022000E152FF4FD491F901E553FF4FC491CC2324
:10023000A9F0162F81110E94DD00EC2FF0E0EE0FE7
:10024000FF1FED55FF4FA591B4918FB7F894EC9136
:10025000111108C0D095DE23DC938FBFDF91CF91C1
:100260001F910895DE2BF8CFCF93DF9390E0FC0130
:10027000E152FF4F249185539F4FFC0184918823C5
:10028000D1F090E0880F991FFC01E756FF4FA59130
:10029000B491FC01ED55FF4FC591D491623071F4DA
:1002A0009FB7F8943C91822F809583238C93E881AB
:1002B0002E2B28839FBFDF91CF9108958FB7F8949D
:1002C000EC912E2B2C938FBFF6CF3FB7F8948091F3
:1002D000170190911801A0911901B0911A0126B54A
:1002E000A89B05C02F3F19F00196A11DB11D3FBF6E
:1002F000BA2FA92F982F8827BC01CD01620F711D3D
:10030000811D911D42E0660F771F881F991F4A9536
:10031000D1F708958F929F92AF92BF92CF92DF92C2
:10032000EF92FF924B015C010E9465016B017C0121
:100330000E9465016C197D098E099F09683E734012
:1003400081059105A8F321E0821A9108A108B1085E
:1003500088EEC80E83E0D81EE11CF11C81149104C4
:10036000A104B10429F7FF90EF90DF90CF90BF90E8
:10037000AF909F908F900895CF92DF92EF92FF926F
:100380000F931F93CF93DF93CDB7DEB7C054D14007
:100390000FB6F894DEBF0FBECDBF2FB7F894809193
:1003A0001B0190911C01A0911D01B0911E012FBF56
:1003B0004091C5015091C6016091C7017091C8017B
:1003C0008C019D01041B150B260B370BB901A801ED
:1003D000403D57406105710590F48091CD01C05CAE
:1003E000DE4F0FB6F894DEBF0FBECDBFDF91CF91C9
:1003F0001F910F91FF90EF90DF90CF900895809321
:10040000C5019093C601A093C701B093C801109293
:10041000C0011092BF011092BE011092BD01109256
:10042000BC0162E08091C1010E94340161E070E092
:1004300080E090E00E948A0161E08091C1010E9409
:10044000340160E08091C1010E9406018091C201E7
:100450008551823020F58BE291E10197F1F762E05E
:100460008091C1010E9434018091CE0190E08230E0
:10047000910538F0880F991F880F991F05970197EC
:10048000F1F7F89480E00E94A5006F3F7F4F8F4FF7
:100490009F4F61F41092CD01789480E0A0CF64E189
:1004A00070E080E090E00E948A01D9CF81E00E9454
:1004B000A5006F3F7F4F8F4F9F4F61F38E010F5FFE
:1004C0001F4F6E018FEBC81A8EEFD80A780180E0BB
:1004D0000E94A500F701608371838283938381E08A
:1004E0000E94A500F7016483758386839783F8E0F3
:1004F000EF0EF11CEC14FD0451F7789430E020E08D
:10050000F801C080D180E280F3804481558166810A
:100510007781FFEFCF16DF06EF06FF0631F04F3F82
:100520008FEF58076807780719F41092CD01B5CFFF
:10053000F90183E0F595E7958A95E1F7E454FE4FDC
:100540008081880FC416D506E606F70610F1808371
:100550002F5F3F4F085F1F4F2832310589F64091CA
:10056000C0012091BC018091BD01280F3327331FAA
:100570008091BE01280F311D8091BF01820F932F02
:10058000911D99274817190681F681E08093CD01C6
:1005900026CF8160DCCFAF92BF92CF92DF92EF92F5
:1005A000FF920F931F93CF93DF936C017B018B011D
:1005B000040F151FEB015E01AE18BF08C017D1076D
:1005C00059F06991D601ED91FC910190F081E02DF7
:1005D000C6010995892B79F7C501DF91CF911F914C
:1005E0000F91FF90EF90DF90CF90BF90AF90089564
:1005F000FC01538D448D252F30E0842F90E0821B29
:10060000930B541710F0CF96089501970895FC01AD
:10061000918D828D981761F0A28DAE0FBF2FB11D05
:100620005D968C91928D9F5F9F73928F90E008955D
:100630008FEF9FEF0895FC01918D828D981731F017
:10064000828DE80FF11D858D90E008958FEF9FEF6B
:100650000895FC01918D228D892F90E0805C9F4F41
:10066000821B91098F73992708958FE191E00E9471
:10067000290321E0892B09F420E0822F089580E0EE
:1006800090E0892B29F00E94350381110C94000021
:100690000895FC01A48DA80FB92FB11DA35ABF4F17
:1006A0002C91848D90E001968F739927848FA68971
:1006B000B7892C93A089B1898C91837080648C93C5
:1006C000938D848D981306C00288F389E02D808174
:1006D0008F7D80830895EF92FF920F931F93CF93A6
:1006E000DF93EC0181E0888F9B8D8C8D98131AC06D
:1006F000E889F989808185FF15C09FB7F894EE8954
:10070000FF896083E889F9898081837080648083B0
:100710009FBF81E090E0DF91CF911F910F91FF90FB
:10072000EF900895F62E0B8D10E00F5F1F4F0F73A3
:100730001127E02E8C8D8E110CC00FB607FCFACF5E
:10074000E889F989808185FFF5CFCE010E944903B0
:10075000F1CFEB8DEC0FFD2FF11DE35AFF4FF0822F
:100760009FB7F8940B8FEA89FB8980818062CFCF95
:100770000F931F93CF93DF938C01D0E0C0E0F8017B
:10078000EC0FFD1F6491662341F08FE191E00E9420
:100790006B03892B11F02196F2CFCE01DF91CF911F
:1007A0001F910F910895CF93DF93EC01888D8823DB
:1007B000B9F0AA89BB89E889F9898C9185FD03C0C4
:1007C000808186FD0DC00FB607FCF7CF8C9185FFA9
:1007D000F2CF808185FFEDCFCE010E944903E9CFA2
:1007E000DF91CF9108958F929F92AF92BF920F9316
:1007F0001F93CF93DF93CDB7DEB7A1970FB6F894D1
:10080000DEBF0FBECDBF19A2423008F44AE08E0110
:100810000F5D1F4F842E912CB12CA12CA5019401AA
:100820000E94A508E62FB901CA01EA3044F5E05D4F
:10083000D801EE938D01232B242B252B79F790E003
:1008400080E0109769F0FD0101900020E9F73197F1
:10085000AF014A1B5B0BBD018FE191E00E94CB020F
:10086000A1960FB6F894DEBF0FBECDBFDF91CF913A
:100870001F910F91BF90AF909F908F900895E95C6A
:10088000D7CF42E050E062E171E08FE191E00C945B
:10089000CB02CF92DF92EF92FF92CF93DF9397FF3D
:1008A0001BC06B017C016DE28FE191E00E946B0344
:1008B000EC0166277727CB016C197D098E099F090A
:1008C0004AE00E94F3038C0F9D1FDF91CF91FF90B0
:1008D000EF90DF90CF9008954AE0DF91CF91FF90A5
:1008E000EF90DF90CF900C94F3031F920F920FB60E
:1008F0000F9211242F933F938F939F93AF93BF93A6
:1009000080911B0190911C01A0911D01B0911E01CD
:100910003091160123E0230F2D3758F50196A11DC4
:10092000B11D2093160180931B0190931C01A0938D
:100930001D01B0931E018091170190911801A091A3
:100940001901B0911A010196A11DB11D80931701E3
:1009500090931801A0931901B0931A01BF91AF9120
:100960009F918F913F912F910F900FBE0F901F90ED
:10097000189526E8230F0296A11DB11DD2CF1F9214
:100980000F920FB60F9211242F933F934F935F93C3
:100990006F937F938F939F93AF93BF93EF93FF9347
:1009A0008FE191E00E944903FF91EF91BF91AF91D8
:1009B0009F918F917F916F915F914F913F912F9177
:1009C0000F900FBE0F901F9018951F920F920FB6A9
:1009D0000F9211242F938F939F93EF93FF93E091A6
:1009E0002F01F09130018081E0913501F0913601C5
:1009F00082FD1BC09081809138018F5F8F732091A1
:100A00003901821741F0E0913801F0E0E15EFE4FDC
:100A1000958F80933801FF91EF919F918F912F9146
:100A20000F900FBE0F901F9018958081F4CFEFE1CB
:100A3000F1E01382128288EE93E0A0E0B0E08483BC
:100A40009583A683B78384E091E09183808385ECCE
:100A500090E09587848784EC90E09787868780EC88
:100A600090E0918B808B81EC90E0938B828B82EC79
:100A700090E0958B848B86EC90E0978B868B118E23
:100A8000128E138E148EACEBB1E082E015968C932F
:100A900015978BE016968C931697E1EEF0E0E491B3
:100AA0001796EC931797EDECF0E0E4911896EC9321
:100AB000189740E85EE360E070E01D964D935D930B
:100AC0006D937C9350970895789484B5826084BD2B
:100AD00084B5816084BD85B5826085BD85B5816042
:100AE00085BD80916E00816080936E0010928100C0
:100AF000809181008260809381008091810081607B
:100B0000809381008091800081608093800080913B
:100B1000B10084608093B1008091B00081608093C7
:100B2000B00080917A00846080937A0080917A008E
:100B3000826080937A0080917A00816080937A004D
:100B400080917A00806880937A001092C100E091D1
:100B50002F01F091300182E08083E0912B01F09130
:100B60002C011082E0912D01F0912E018FEC8083F9
:100B700010923701E0913301F091340186E08083D7
:100B8000E0913101F0913201808180618083E091B8
:100B90003101F0913201808188608083E0913101E0
:100BA000F0913201808180688083E0913101F09181
:100BB000320180818F7D808361E088E00E94340172
:100BC00061E08DE00E94340160E088E00E9406014F
:100BD00062E08091C1010E9434012FB7F8948091A6
:100BE0001B0190911C01A0911D01B0911E012FBF0E
:100BF000805D9740A109B1098093C5019093C6011A
:100C0000A093C701B093C80187E38093CE0188E623
:100C100090E00E94B8030E944104C5EBD0E007EECB
:100C200010E033EDE32E30E0F32E40E0C42E40E040
:100C3000D42E80E480937C0080917A00806480933D
:100C40007A0080917A0086FDFCCF809078009090A9
:100C500079000E94BC01882341F08091C2018C3050
:100C600009F4AFC038F48B30F1F060E070E080EC54
:100C70009FE741C085518230C0F7B090BE016B2D17
:100C800070E0762F662766277F778091BF01682BFB
:100C900090E080E00E94AA072DEC3CEC4CEC5DE378
:100CA0000E943808AAC06091BE0170E090E080E028
:100CB0000E94AA072B013C01B090BF01B7FE0AC0F9
:100CC000AC019B0160E070E080E89FEB0E940707A9
:100CD0002B013C016B2D6F7070E090E080E00E9472
:100CE000AC072DEC3CEC4CEC5DE30E943808A30112
:100CF00092010E9408070E9474075B016536710526
:100D000018F09CE1A92EB12CF4EF8F16F1E09F06AC
:100D10000CF077C061E088E00E94060161E08DE0A0
:100D20000E94060182E990E00E94B803B401990C88
:100D3000880B990B0E94490488E890E00E94B80350
:100D4000B501BB0C880B990B0E9449048DE790E01C
:100D50000E94B803FE018491F801B490F701A490B9
:100D600070E060E0AA2099F081110E94DD00EA2D78
:100D7000F0E0EE0FFF1FEF53FF4FA591B4918C9160
:100D8000B82291E080E009F490E0692F782F072ED7
:100D9000000C880B990B0E9449040E94410468EEE4
:100DA00073E080E090E00E948A01C114D10409F44C
:100DB00040CF0E943503882309F43BCF0E940000F6
:100DC00038CFB090BE016B2D70E090E080E00E94C3
:100DD000AA071B012C016091BF016F7070E090E0C9
:100DE00080E00E94AC072DEC3CEC4CEC5DE30E94F3
:100DF0003808A20191010E940807B7FE7CCF9058E5
:100E00007ACF60E088E00E94060160E088CF505809
:100E1000BB27AA270E941F070C94FE070E94F00719
:100E200038F00E94F70720F039F49F3F19F426F4B8
:100E30000C94ED070EF4E095E7FB0C94E707E92F1F
:100E40000E940F0858F3BA176207730784079507C3
:100E500020F079F4A6F50C9431080EF4E0950B2EF1
:100E6000BA2FA02D0B01B90190010C01CA01A001FC
:100E70001124FF27591B99F0593F50F4503E68F157
:100E80001A16F040A22F232F342F4427585FF3CF98
:100E9000469537952795A795F0405395C9F77EF469
:100EA0001F16BA0B620B730B840BBAF09150A1F0B2
:100EB000FF0FBB1F661F771F881FC2F70EC0BA0F38
:100EC000621F731F841F48F4879577956795B795C0
:100ED000F7959E3F08F0B0CF9395880F08F09927BB
:100EE000EE0F9795879508950E947B076894B1113E
:100EF0000C94320808950E94170888F09F5798F0C4
:100F0000B92F9927B751B0F0E1F0660F771F881F0E
:100F1000991F1AF0BA95C9F714C0B13091F00E9428
:100F20003108B1E008950C943108672F782F882795
:100F3000B85F39F0B93FCCF3869577956795B3954F
:100F4000D9F73EF490958095709561957F4F8F4FBE
:100F50009F4F0895E89409C097FB3EF490958095C3
:100F6000709561957F4F8F4F9F4F9923A9F0F92F6F
:100F700096E9BB279395F695879577956795B795ED
:100F8000F111F8CFFAF4BB0F11F460FF1BC06F5FD3
:100F90007F4F8F4F9F4F16C0882311F096E911C0E5
:100FA000772321F09EE8872F762F05C0662371F006
:100FB00096E8862F70E060E02AF09A95660F771F1A
:100FC000881FDAF7880F9695879597F9089597F90E
:100FD0009F6780E870E060E008959FEF80EC0895DF
:100FE00000240A9416161706180609060895002408
:100FF0000A9412161306140605060895092E039482
:10100000000C11F4882352F0BB0F40F4BF2B11F4F5
:1010100060FF04C06F5F7F4F8F4F9F4F089557FD54
:101020009058440F551F59F05F3F71F04795880F56
:1010300097FB991F61F09F3F79F0879508951216ED
:1010400013061406551FF2CF4695F1DF08C0161699
:1010500017061806991FF1CF86957105610508944A
:101060000895E894BB2766277727CB0197F9089561
:101070000E944B080C94FE070E94F00738F00E9473
:10108000F70720F0952311F00C94E7070C94ED0777
:1010900011240C9432080E940F0870F3959FC1F33D
:1010A000950F50E0551F629FF001729FBB27F00D16
:1010B000B11D639FAA27F00DB11DAA1F649F66276B
:1010C000B00DA11D661F829F2227B00DA11D621FBA
:1010D000739FB00DA11D621F839FA00D611D221F74
:1010E000749F3327A00D611D231F849F600D211D58
:1010F000822F762F6A2F11249F5750409AF0F1F0DB
:1011000088234AF0EE0FFF1FBB1F661F771F881F43
:1011100091505040A9F79E3F510580F00C94E7078D
:101120000C9432085F3FE4F3983ED4F386957795AC
:101130006795B795F795E7959F5FC1F7FE2B880FE9
:10114000911D9695879597F90895A1E21A2EAA1BED
:10115000BB1BFD010DC0AA1FBB1FEE1FFF1FA21767
:10116000B307E407F50720F0A21BB30BE40BF50B64
:10117000661F771F881F991F1A9469F760957095ED
:10118000809590959B01AC01BD01CF010895EE0FB4
:0E119000FF1F0590F491E02D0994F894FFCF15
:10119E00000000006B03CB02F802D3032903070300
:0611AE001B030D0A000006
:00000001FF
